{
  "contractName": "MyToken",
  "abi": [
    {
      "inputs": [],
      "name": "totalSupply",
      "outputs": [
        {
          "internalType": "uint256",
          "name": "",
          "type": "uint256"
        }
      ],
      "stateMutability": "view",
      "type": "function",
      "constant": true
    },
    {
      "inputs": [],
      "name": "myToken",
      "outputs": [],
      "stateMutability": "nonpayable",
      "type": "function"
    }
  ],
  "bytecode": "0x608060405234801561001057600080fd5b5060d18061001f6000396000f3fe6080604052348015600f57600080fd5b506004361060325760003560e01c806318160ddd146037578063b8fcf937146051575b600080fd5b603d6059565b604051604891906082565b60405180910390f35b6057605f565b005b60005481565b620f4240600081905550565b6000819050919050565b607c81606b565b82525050565b6000602082019050609560008301846075565b9291505056fea2646970667358221220a95ccf342ff9406673687d55b481a0b74a92cbb91ec6af9db06211172a74116064736f6c634300080a0033",
  "immutableReferences": {},
  "source": "pragma solidity ^0.8.10;\r\n\r\ncontract MyToken{\r\n    //Constructor\r\n    //Set the total number of tokens\r\n    //read the total number of tokens\r\n    uint256 public totalSupply;\r\n\r\n    function myToken () public {\r\n        totalSupply = 1000000;\r\n    }\r\n}\r\n\r\n",
  "sourcePath": "C:\\Users\\Freenature\\Desktop\\Websites\\token-sale\\contracts\\MyToken.sol",
  "compiler": {
    "name": "solc",
    "version": "0.8.10+commit.fc410830.Emscripten.clang"
  },
  "schemaVersion": "3.4.3",
  "updatedAt": "2021-11-14T00:21:35.374Z",
  "networkType": "ethereum",
  "devdoc": {
    "kind": "dev",
    "methods": {},
    "version": 1
  },
  "userdoc": {
    "kind": "user",
    "methods": {},
    "version": 1
  }
}